:100000000C9446000C946E000C946E000C946E00E0
:100010000C946E000C946E000C946E000C946E00A8
:100020000C946E000C946E000C946E000C946E0098
:100030000C946E000C946E000C946E000C946E0088
:100040000C945A020C946E000C9428020C94020238
:100050000C946E000C946E000C946E000C946E0068
:100060000C946E000C946E00536574757020446F90
:100070006E6500416464723A200053657475702E99
:100080002E2E00547269673A20004D0311241FBEC2
:10009000CFEFD8E0DEBFCDBF11E0A0E0B1E0E2E5F8
:1000A000F7E002C005900D92A431B107D9F721E025
:1000B000A4E1B1E001C01D92AB3BB207E1F710E053
:1000C000C6E4D0E004C02197FE010E949C03C53421
:1000D000D107C9F70E94A4020C94A7030C94000056
:1000E0000F931F93CF93DF938C01C0E0D0E0F80112
:1000F000EC0FFD1F6491662371F0E0911E01F091F9
:100100001F010190F081E02D8EE191E00995892B8E
:1001100011F02196ECCFCE01DF91CF911F910F917D
:100120000895FC01918D828D981761F0828DDF0119
:10013000A80FB11D5D968C91928D9F5F9F73928FDA
:1001400090E008958FEF9FEF0895FC01918D828DCF
:10015000981731F0828DE80FF11D858D90E008959C
:100160008FEF9FEF0895FC01918D228D892F90E0F4
:10017000805C9F4F821B91098F7399270895FC0122
:10018000848DDF01A80FB11DA35ABF4F2C91848D20
:1001900090E001968F739927848FA689B7892C9355
:1001A000A089B1898C9180648C93938D848D9813F0
:1001B00006C00288F389E02D80818F7D80830895B9
:1001C000EF92FF920F931F93CF93DF93EC0181E0A7
:1001D000888F9B8D8C8D981305C0E889F989808163
:1001E00085FD24C0F62E0B8D10E00F5F1F4F0F739F
:1001F0001127E02E8C8DE8120CC00FB607FCFACF49
:10020000E889F989808185FFF5CFCE010E94BF0082
:10021000F1CF8B8DFE01E80FF11DE35AFF4FF08205
:100220000B8FEA89FB898081806207C0EE89FF8994
:100230006083E889F98980818064808381E090E02F
:10024000DF91CF911F910F91FF90EF900895CF9381
:10025000DF93EC01888D8823C9F0EA89FB898081CE
:1002600085FD05C0A889B9898C9186FD0FC00FB6A0
:1002700007FCF5CF808185FFF2CFA889B9898C91E1
:1002800085FFEDCFCE010E94BF00E7CFDF91CF9178
:1002900008958EE191E00E94B30021E0892B09F4DA
:1002A00020E0822F089580E090E0892B29F00E94C1
:1002B000490181110C9400000895CF92DF92EF92D2
:1002C000FF920F931F93CF93DF936C017A018B0101
:1002D000C0E0D0E0CE15DF0589F0D8016D918D0129
:1002E000D601ED91FC910190F081E02DC6010995B8
:1002F000892B11F47E0102C02196ECCFC701DF915A
:10030000CF911F910F91FF90EF90DF90CF900895C4
:100310003FB7F8948091190190911A01A0911B01A7
:10032000B0911C0126B5A89B05C02F3F19F001967E
:10033000A11DB11D3FBFBA2FA92F982F8827820F6B
:10034000911DA11DB11DBC01CD0142E0660F771FBB
:10035000881F991F4A95D1F70895009769F0FC010D
:1003600001900020E9F73197AF01481B590BBC0100
:100370008EE191E00C945D0180E090E008958F9211
:100380009F92AF92BF920F931F93CF93DF93CDB7FE
:10039000DEB7A1970FB6F894DEBF0FBECDBF19A28E
:1003A000423008F44AE08E010F5D1F4F842E912CDD
:1003B000A12CB12CA50194010E947A03E62FB9016A
:1003C000CA0101501109EA3014F4E05D01C0E95C92
:1003D000D801EC93232B242B252B61F7C8010E9415
:1003E000AD01A1960FB6F894DEBF0FBECDBFDF9171
:1003F000CF911F910F91BF90AF909F908F900895D4
:100400000E94A2031F920F920FB60F9211242F93F6
:100410003F934F935F936F937F938F939F93AF938C
:10042000BF93EF93FF938EE191E00E94BF00FF9195
:10043000EF91BF91AF919F918F917F916F915F915C
:100440004F913F912F910F900FBE0F901F901895D5
:100450001F920F920FB60F9211242F938F939F9399
:10046000EF93FF93E0912E01F0912F018081E091B5
:100470003401F091350182FD12C0908180913701E5
:100480008F5F8F7320913801821751F0E09137010F
:10049000F0E0E25EFE4F958F8093370101C08081CE
:1004A000FF91EF919F918F912F910F900FBE0F9021
:1004B0001F9018951F920F920FB60F9211242F9331
:1004C0003F938F939F93AF93BF938091150190912A
:1004D0001601A0911701B09118013091140123E089
:1004E000230F2D3720F40196A11DB11D05C026E86C
:1004F000230F0296A11DB11D2093140180931501B5
:1005000090931601A0931701B093180180911901DF
:1005100090911A01A0911B01B0911C010196A11D9F
:10052000B11D8093190190931A01A0931B01B09300
:100530001C01BF91AF919F918F913F912F910F908F
:100540000FBE0F901F901895789484B5826084BD7B
:1005500084B5816084BD85B5826085BD85B58160C7
:1005600085BD80916E00816080936E001092810045
:100570008091810082608093810080918100816000
:1005800080938100809180008160809380008091C1
:10059000B10084608093B1008091B000816080934D
:1005A000B00080917A00846080937A0080917A0014
:1005B000826080937A0080917A00816080937A00D3
:1005C00080917A00806880937A001092C1008AE757
:1005D00090E00E94700080E191E00E94AD01219ABC
:1005E000299A86B18F7080931D0183E790E00E9465
:1005F000700060911D0170E080E090E04AE00E9490
:10060000BF0180E191E00E94AD0188E690E00E9488
:10061000700080E191E00E94AD01199A83E890E0BA
:100620000E94700063B16695617070E080E090E0B8
:100630004AE00E94BF0180E191E00E94AD0180E1AB
:1006400091E00E94AD010E9488014B015C0184EFA2
:10065000C82EDD24D394E12CF12C0E948801DC010A
:10066000CB0188199909AA09BB09883E9340A105C5
:10067000B10558F021E0C21AD108E108F10888EE6E
:10068000880E83E0981EA11CB11CC114D104E104A2
:10069000F10419F70E945301C0CFEEE1F1E013829B
:1006A000128288EE93E0A0E0B0E084839583A68375
:1006B000B78384E091E09183808385EC90E0958717
:1006C000848784EC90E09787868780EC90E0918B1C
:1006D000808B81EC90E0938B828B82EC90E0958B09
:1006E000848B86EC90E0978B868B118E128E138E06
:1006F000148E0895A1E21A2EAA1BBB1BFD010DC08A
:10070000AA1FBB1FEE1FFF1FA217B307E407F507C1
:1007100020F0A21BB30BE40BF50B661F771F881F9D
:10072000991F1A9469F760957095809590959B0133
:10073000AC01BD01CF010895EE0FFF1F0590F491AC
:10074000E02D099481E090E0F8940C94A703F894CC
:02075000FFCFD9
:1007520000000000E0005D01B3009100A500270148
:040762000D0A00007C
:00000001FF
